:0200000001feff
:0200010001fc00
:0200020001fa01
:0200030001f802
:0200040001f603
:0200050001f404
:0200060001f205
:0200070001f006
:0200080001ee07
:0200090001ec08
:02000a0001ea09
:02000b0001e80a
:02000c0001e60b
:02000d0001e40c
:02000e0001e20d
:02000f0001e00e
:0200100001df0e
:0200110001dd0f
:0200120001db10
:0200130001d911
:0200140001d712
:0200150001d513
:0200160001d314
:0200170001d214
:0200180001d015
:0200190001ce16
:02001a0001cc17
:02001b0001ca18
:02001c0001c918
:02001d0001c719
:02001e0001c51a
:02001f0001c31b
:0200200001c11c
:0200210001c01c
:0200220001be1d
:0200230001bc1e
:0200240001ba1f
:0200250001b91f
:0200260001b720
:0200270001b521
:0200280001b421
:0200290001b222
:02002a0001b023
:02002b0001ae24
:02002c0001ad24
:02002d0001ab25
:02002e0001a926
:02002f0001a826
:0200300001a627
:0200310001a428
:0200320001a328
:0200330001a129
:02003400019f2a
:02003500019e2a
:02003600019c2b
:02003700019b2b
:0200380001992c
:0200390001972d
:02003a0001962d
:02003b0001942e
:02003c0001922f
:02003d0001912f
:02003e00018f30
:02003f00018e30
:02004000018c31
:02004100018b31
:02004200018932
:02004300018733
:02004400018633
:02004500018434
:02004600018334
:02004700018135
:02004800018035
:02004900017e36
:02004a00017d36
:02004b00017b37
:02004c00017a37
:02004d00017838
:02004e00017738
:02004f00017539
:02005000017439
:0200510001723a
:0200520001713a
:02005300016f3b
:02005400016e3b
:02005500016c3c
:02005600016b3c
:0200570001693d
:0200580001683d
:0200590001663e
:02005a0001653e
:02005b0001643e
:02005c0001623f
:02005d0001613f
:02005e00015f40
:02005f00015e40
:02006000015c41
:02006100015b41
:02006200015a41
:02006300015842
:02006400015742
:02006500015543
:02006600015443
:02006700015343
:02006800015144
:02006900015044
:02006a00014e45
:02006b00014d45
:02006c00014c45
:02006d00014a46
:02006e00014946
:02006f00014846
:02007000014647
:02007100014547
:02007200014447
:02007300014248
:02007400014148
:02007500014048
:02007600013e49
:02007700013d49
:02007800013c49
:02007900013a4a
:02007a0001394a
:02007b0001384a
:02007c0001374a
:02007d0001354b
:02007e0001344b
:02007f0001334b
:0200800001314c
:0200810001304c
:02008200012f4c
:02008300012e4c
:02008400012c4d
:02008500012b4d
:02008600012a4d
:0200870001294d
:0200880001274e
:0200890001264e
:02008a0001254e
:02008b0001244e
:02008c0001224f
:02008d0001214f
:02008e0001204f
:02008f00011f4f
:02009000011e4f
:02009100011c50
:02009200011b50
:02009300011a50
:02009400011950
:02009500011751
:02009600011651
:02009700011551
:02009800011451
:02009900011351
:02009a00011251
:02009b00011052
:02009c00010f52
:02009d00010e52
:02009e00010d52
:02009f00010c52
:0200a000010b52
:0200a100010953
:0200a200010853
:0200a300010753
:0200a400010653
:0200a500010553
:0200a600010453
:0200a700010353
:0200a800010154
:0200a900010054
:0200aa0000ff55
:0200ab0000fe55
:0200ac0000fd55
:0200ad0000fc55
:0200ae0000fb55
:0200af0000fa55
:0200b00000f856
:0200b10000f756
:0200b20000f656
:0200b30000f556
:0200b40000f456
:0200b50000f356
:0200b60000f256
:0200b70000f156
:0200b80000f056
:0200b90000ef56
:0200ba0000ee56
:0200bb0000ec57
:0200bc0000eb57
:0200bd0000ea57
:0200be0000e957
:0200bf0000e857
:0200c00000e757
:0200c10000e657
:0200c20000e557
:0200c30000e457
:0200c40000e357
:0200c50000e257
:0200c60000e157
:0200c70000e057
:0200c80000df57
:0200c90000de57
:0200ca0000dd57
:0200cb0000dc57
:0200cc0000db57
:0200cd0000da57
:0200ce0000d957
:0200cf0000d857
:0200d00000d757
:0200d10000d657
:0200d20000d557
:0200d30000d457
:0200d40000d357
:0200d50000d257
:0200d60000d157
:0200d70000d057
:0200d80000cf57
:0200d90000ce57
:0200da0000cd57
:0200db0000cc57
:0200dc0000cb57
:0200dd0000ca57
:0200de0000c957
:0200df0000c857
:0200e00000c757
:0200e10000c657
:0200e20000c557
:0200e30000c457
:0200e40000c357
:0200e50000c257
:0200e60000c157
:0200e70000c057
:0200e80000bf57
:0200e90000be57
:0200ea0000bd57
:0200eb0000bc57
:0200ec0000bb57
:0200ed0000bb56
:0200ee0000ba56
:0200ef0000b956
:0200f00000b856
:0200f10000b756
:0200f20000b656
:0200f30000b556
:0200f40000b456
:0200f50000b356
:0200f60000b256
:0200f70000b156
:0200f80000b056
:0200f90000b055
:0200fa0000af55
:0200fb0000ae55
:0200fc0000ad55
:0200fd0000ac55
:0200fe0000ab55
:0200ff0000aa55
:0201000000a954
:0201010000a854
:0201020000a853
:0201030000a753
:0201040000a653
:0201050000a553
:0201060000a453
:0201070000a353
:0201080000a253
:0201090000a153
:02010a0000a152
:02010b0000a052
:02010c00009f52
:02010d00009e52
:02010e00009d52
:02010f00009c52
:02011000009b52
:02011100009b51
:02011200009a51
:02011300009951
:02011400009851
:02011500009751
:02011600009651
:02011700009551
:02011800009550
:02011900009450
:02011a00009350
:02011b00009250
:02011c00009150
:02011d0000914f
:02011e0000904f
:02011f00008f4f
:02012000008e4f
:02012100008d4f
:02012200008c4f
:02012300008c4e
:02012400008b4e
:02012500008a4e
:0201260000894e
:0201270000884e
:0201280000884d
:0201290000874d
:02012a0000864d
:02012b0000854d
:02012c0000844d
:02012d0000844c
:02012e0000834c
:02012f0000824c
:0201300000814c
:0201310000804c
:0201320000804b
:02013300007f4b
:02013400007e4b
:02013500007d4b
:02013600007d4a
:02013700007c4a
:02013800007b4a
:02013900007a4a
:02013a0000794a
:02013b00007949
:02013c00007849
:02013d00007749
:02013e00007649
:02013f00007648
:02014000007548
:02014100007448
:02014200007348
:02014300007347
:02014400007247
:02014500007147
:02014600007047
:02014700007046
:02014800006f46
:02014900006e46
:02014a00006d46
:02014b00006d45
:02014c00006c45
:02014d00006b45
:02014e00006a45
:02014f00006a44
:02015000006944
:02015100006844
:02015200006843
:02015300006743
:02015400006643
:02015500006543
:02015600006542
:02015700006442
:02015800006342
:02015900006341
:02015a00006241
:02015b00006141
:02015c00006041
:02015d00006040
:02015e00005f40
:02015f00005e40
:02016000005e3f
:02016100005d3f
:02016200005c3f
:02016300005c3e
:02016400005b3e
:02016500005a3e
:0201660000593e
:0201670000593d
:0201680000583d
:0201690000573d
:02016a0000573c
:02016b0000563c
:02016c0000553c
:02016d0000553b
:02016e0000543b
:02016f0000533b
:0201700000533a
:0201710000523a
:0201720000513a
:02017300005139
:02017400005039
:02017500004f39
:02017600004f38
:02017700004e38
:02017800004d38
:02017900004d37
:02017a00004c37
:02017b00004b37
:02017c00004b36
:02017d00004a36
:02017e00004936
:02017f00004935
:02018000004835
:02018100004735
:02018200004734
:02018300004634
:02018400004534
:02018500004533
:02018600004433
:02018700004333
:02018800004332
:02018900004232
:02018a00004231
:02018b00004131
:02018c00004031
:02018d00004030
:02018e00003f30
:02018f00003e30
:02019000003e2f
:02019100003d2f
:02019200003c2f
:02019300003c2e
:02019400003b2e
:02019500003b2d
:02019600003a2d
:0201970000392d
:0201980000392c
:0201990000382c
:02019a0000382b
:02019b0000372b
:02019c0000362b
:02019d0000362a
:02019e0000352a
:02019f0000342a
:0201a000003429
:0201a100003329
:0201a200003328
:0201a300003228
:0201a400003128
:0201a500003127
:0201a600003027
:0201a700003026
:0201a800002f26
:0201a900002e26
:0201aa00002e25
:0201ab00002d25
:0201ac00002d24
:0201ad00002c24
:0201ae00002b24
:0201af00002b23
:0201b000002a23
:0201b100002a22
:0201b200002922
:0201b300002921
:0201b400002821
:0201b500002721
:0201b600002720
:0201b700002620
:0201b80000261f
:0201b90000251f
:0201ba0000241f
:0201bb0000241e
:0201bc0000231e
:0201bd0000231d
:0201be0000221d
:0201bf0000221c
:0201c00000211c
:0201c10000201c
:0201c20000201b
:0201c300001f1b
:0201c400001f1a
:0201c500001e1a
:0201c600001e19
:0201c700001d19
:0201c800001d18
:0201c900001c18
:0201ca00001b18
:0201cb00001b17
:0201cc00001a17
:0201cd00001a16
:0201ce00001916
:0201cf00001915
:0201d000001815
:0201d100001814
:0201d200001714
:0201d300001614
:0201d400001613
:0201d500001513
:0201d600001512
:0201d700001412
:0201d800001411
:0201d900001311
:0201da00001310
:0201db00001210
:0201dc0000120f
:0201dd0000110f
:0201de0000110e
:0201df0000100e
:0201e000000f0e
:0201e100000f0d
:0201e200000e0d
:0201e300000e0c
:0201e400000d0c
:0201e500000d0b
:0201e600000c0b
:0201e700000c0a
:0201e800000b0a
:0201e900000b09
:0201ea00000a09
:0201eb00000a08
:0201ec00000908
:0201ed00000907
:0201ee00000807
:0201ef00000806
:0201f000000706
:0201f100000705
:0201f200000605
:0201f300000604
:0201f400000504
:0201f500000503
:0201f600000403
:0201f700000402
:0201f800000302
:0201f900000301
:0201fa00000201
:0201fb00000200
:0201fc00000100
:0201fd000001ff
:0201fe000000ff
:0201ff000000fe
:00000001ff
